{
    "contractName": "Counter",
    "abi": [
        {
            "inputs": [],
            "stateMutability": "nonpayable",
            "type": "constructor"
        },
        {
            "inputs": [],
            "name": "getCount",
            "outputs": [
                {
                    "internalType": "uint256",
                    "name": "",
                    "type": "uint256"
                }
            ],
            "stateMutability": "view",
            "type": "function"
        },
        {
            "inputs": [],
            "name": "incrementCount",
            "outputs": [],
            "stateMutability": "nonpayable",
            "type": "function"
        }
    ],
    "bytecode": "608060405234801561001057600080fd5b506000805560c0806100236000396000f3fe6080604052348015600f57600080fd5b506004361060325760003560e01c8063a87d942c146037578063e5071b8e14604c575b600080fd5b60005460405190815260200160405180910390f35b60526054565b005b60005460609060016065565b600055565b60008219821115608557634e487b7160e01b600052601160045260246000fd5b50019056fea2646970667358221220bc74e4b6f328bdff0c664852c8c512e8f6463b8ce602bae242273872c883fd4c64736f6c634300080f0033",
    "sourcePath": "d:/Computer Science/Intro to Soldity/contracts/Counter.sol",
    "compiler": {
        "name": "solc",
        "version": "0.8.15+commit.e14f2714"
    },
    "functionHashes": {
        "getCount()": "a87d942c",
        "incrementCount()": "e5071b8e"
    },
    "gasEstimates": {
        "creation": {
            "codeDepositCost": "38400",
            "executionCost": "5093",
            "totalCost": "43493"
        },
        "external": {
            "getCount()": "2246",
            "incrementCount()": "24420"
        }
    }
}